{
  "_format": "hh-sol-artifact-1",
  "contractName": "SimpleForm",
  "sourceName": "contracts/SimpleForm.sol",
  "abi": [
    {
      "inputs": [],
      "name": "getData",
      "outputs": [
        {
          "components": [
            {
              "internalType": "string",
              "name": "name",
              "type": "string"
            },
            {
              "internalType": "string",
              "name": "birthdate",
              "type": "string"
            },
            {
              "internalType": "uint256",
              "name": "number",
              "type": "uint256"
            },
            {
              "internalType": "string",
              "name": "desc",
              "type": "string"
            }
          ],
          "internalType": "struct SimpleForm.DataStruct",
          "name": "",
          "type": "tuple"
        }
      ],
      "stateMutability": "view",
      "type": "function"
    },
    {
      "inputs": [
        {
          "internalType": "string",
          "name": "_name",
          "type": "string"
        },
        {
          "internalType": "string",
          "name": "_birthdate",
          "type": "string"
        },
        {
          "internalType": "uint256",
          "name": "_number",
          "type": "uint256"
        },
        {
          "internalType": "string",
          "name": "_desc",
          "type": "string"
        }
      ],
      "name": "setData",
      "outputs": [],
      "stateMutability": "nonpayable",
      "type": "function"
    }
  ],
  "bytecode": "0x608060405234801561001057600080fd5b50610720806100206000396000f3fe608060405234801561001057600080fd5b50600436106100365760003560e01c80633bc5de301461003b5780638bd0f8b714610059575b600080fd5b610043610075565b6040516100509190610547565b60405180910390f35b610073600480360381019061006e91906103e3565b610249565b005b61007d61029b565b600060405180608001604052806000805461009790610632565b80601f01602080910402602001604051908101604052809291908181526020018280546100c390610632565b80156101105780601f106100e557610100808354040283529160200191610110565b820191906000526020600020905b8154815290600101906020018083116100f357829003601f168201915b505050505081526020016001805461012790610632565b80601f016020809104026020016040519081016040528092919081815260200182805461015390610632565b80156101a05780601f10610175576101008083540402835291602001916101a0565b820191906000526020600020905b81548152906001019060200180831161018357829003601f168201915b505050505081526020016002548152602001600380546101bf90610632565b80601f01602080910402602001604051908101604052809291908181526020018280546101eb90610632565b80156102385780601f1061020d57610100808354040283529160200191610238565b820191906000526020600020905b81548152906001019060200180831161021b57829003601f168201915b505050505081525090508091505090565b836000908051906020019061025f9291906102c3565b5082600190805190602001906102769291906102c3565b508160028190555080600390805190602001906102949291906102c3565b5050505050565b6040518060800160405280606081526020016060815260200160008152602001606081525090565b8280546102cf90610632565b90600052602060002090601f0160209004810192826102f15760008555610338565b82601f1061030a57805160ff1916838001178555610338565b82800160010185558215610338579182015b8281111561033757825182559160200191906001019061031c565b5b5090506103459190610349565b5090565b5b8082111561036257600081600090555060010161034a565b5090565b60006103796103748461059a565b610569565b90508281526020810184848401111561039157600080fd5b61039c8482856105f0565b509392505050565b600082601f8301126103b557600080fd5b81356103c5848260208601610366565b91505092915050565b6000813590506103dd816106d3565b92915050565b600080600080608085870312156103f957600080fd5b600085013567ffffffffffffffff81111561041357600080fd5b61041f878288016103a4565b945050602085013567ffffffffffffffff81111561043c57600080fd5b610448878288016103a4565b9350506040610459878288016103ce565b925050606085013567ffffffffffffffff81111561047657600080fd5b610482878288016103a4565b91505092959194509250565b6000610499826105ca565b6104a381856105d5565b93506104b38185602086016105ff565b6104bc816106c2565b840191505092915050565b600060808301600083015184820360008601526104e4828261048e565b915050602083015184820360208601526104fe828261048e565b91505060408301516105136040860182610538565b506060830151848203606086015261052b828261048e565b9150508091505092915050565b610541816105e6565b82525050565b6000602082019050818103600083015261056181846104c7565b905092915050565b6000604051905081810181811067ffffffffffffffff821117156105905761058f610693565b5b8060405250919050565b600067ffffffffffffffff8211156105b5576105b4610693565b5b601f19601f8301169050602081019050919050565b600081519050919050565b600082825260208201905092915050565b6000819050919050565b82818337600083830152505050565b60005b8381101561061d578082015181840152602081019050610602565b8381111561062c576000848401525b50505050565b6000600282049050600182168061064a57607f821691505b6020821081141561065e5761065d610664565b5b50919050565b7f4e487b7100000000000000000000000000000000000000000000000000000000600052602260045260246000fd5b7f4e487b7100000000000000000000000000000000000000000000000000000000600052604160045260246000fd5b6000601f19601f8301169050919050565b6106dc816105e6565b81146106e757600080fd5b5056fea26469706673582212200bc11fa167e0821e86fb458867a35782bd986e01e47e8380d27e99d744494e8364736f6c63430008000033",
  "linkReferences": {},
  "deployedLinkReferences": {}
}